:1022ED0053656C656374007468650063757272651F
:1022FD006E7400736561736F6E00706C65617365EC
:10230D00004E554C4C0053554D2E0057494E2E0046
:10231D0020202020202000202020002020202020F0
:10232D002020002020202000596F750063616E0071
:10233D006F70656E007661766C6500202020202020
:10234D00007461726765742054454D502E203A001B
:10235D0063757272656E742054454D502E203A008F
:10236D00434C532E00202D20200020202B20002018
:10237D002020202020202020202020202000202070
:10238D002020202020200020202020202020202060
:10239D0020202020202000252E3166000901030277
:1023AD0006040C08706C6561736520656E7465724A
:0F23BD002074656D70657261747572653A2000E9
:102A9100820B0000820D00008212000084160000EB
:102AA1000000841A00000000811000810900810AE1
:102AB10000811100822855F0822A55F0821408986D
:0F2AC100810800810F0081050081060081070058
:102D230012000E121779E4FFFE122C0A122B66AC66
:102D330006AD07EC120336E4FBFA79207841120260
:102D430027781A120780122F8D122FA3122FCE78F5
:0F2D53000AE2B401051215148003121D3380FE2D
:1021F5007BFF7A2279EDE4FDFC7F28FE1226067B23
:10220500FF7A2279F47D187C007F307E0012260645
:102215007BFF7A2279F87D307C007F287E001226AC
:10222500067BFF7A2379007D487C007F287E00129B
:1022350026067BFF7A2379077D607C007F287E0058
:102245001226067877E4F208748DF27B7B7A00FD1E
:102255007C007F047E00121B857877E4F20874A069
:10226500F27B2C7A007D8D7C007F2C7E00121B85F5
:102275007877E4F20874A0F27B547A007D8D7C00B7
:102285007F547E00121B857877E4F20874A0F27BF8
:10229500047A007D8D7C007F047E00121B85787793
:1022A500E4F20874A0F27B7B7A007D8D7C007F7B55
:1022B5007E00121B857BFF7A23790E7D907C007F43
:1022C500087E001226067BFF7A2379137D907C0019
:1022D5007F307E001226067BFF7A2379187D907C5D
:0822E500007F587E000226066E
:102728007BFF7A23791DE4FDFC7F28FE1226067BB9
:10273800FF7A2379247D187C007F307E00122606DC
:102748007BFF7A2379287D307C007F287E00122643
:10275800067BFF7A23791D7D487C007F287E001246
:1027680026067BFF7A23791D7D607C007F287E000A
:102778001226067BFF7A2379307D907C007F087EC5
:10278800001226067BFF7A2379307D907C007F300B
:102798007E001226067BFF7A2379307D907C007FAD
:0627A800587E0002260627
:1027AE007BFF7A237935E4FDFC7F30FE1226067B13
:1027BE00FF7A2379397D187C007F307E0012260641
:1027CE007BFF7A23793D7D307C007F307E001226A0
:1027DE00067BFF7A2279F47D487C007F307E0012E2
:1027EE0026067BFF7A2379427D607C007F287E005F
:1027FE001226067BFF7A23790E7D907C007F087E61
:10280E00001226067BFF7A23790E7D907C007F30A6
:10281E007E001226067BFF7A23790E7D907C007F48
:06282E00587E00022606A0
:102834007BFF7A237924E4FDFC7F30FE1226067B9D
:10284400FF7A2379247D187C007F307E00122606CF
:102854007BFF7A2379307D307C007F307E00122626
:10286400067BFF7A2379247D487C007F307E00122A
:1028740026067BFF7A2379487D607C007F287E00D2
:102884001226067BFF7A23790E7D907C007F087EDA
:10289400001226067BFF7A23790E7D907C007F3020
:1028A4007E001226067BFF7A23790E7D907C007FC2
:0628B400587E000226061A
:102557007BFF7A23794EE4FDFCFFFE1226067BFF04
:102567007A2379307D187C007F207E00122606E4CE
:10257700787AF27B2E7D11FC7F44FE122099E47855
:102587007AF27B437D18FC7F48FE1220997BFF7A05
:1025970023795D7D507C00E4FFFE1226067BFF7ADF
:1025A7002379307D687C007F207E00122606E47840
:1025B7007AF27B2E7D61FC7F44FE122099E4787AC3
:1025C700F27B437D68FC7F48FE1220997BFF7A23CC
:1025D700796D7D907C007F087E001226067BFF7A4E
:1025E7002379727D907C007F307E001226067BFF68
:0F25F7007A2379777D907C007F587E000226063C
:102498007BFF7A23797CE4FDFCFFFE1226067BFF96
:1024A8007A2379307D187C007F207E00122606E48E
:1024B800787AF27B207D11FC7F44FE122099E47823
:1024C8007AF27B207D18FC7F48FE1220997BFF7AE8
:1024D80023798B7D307C00E4FFFE1226067BFF7A91
:1024E8002379947D507C00E4FFFE1226067BFF7A58
:1024F8002379307D687C007F207E00122606E478F0
:102508007AF27B207D61FC7F44FE122099E4787A80
:10251800F27B207D68FC7F48FE1220997BFF7A239E
:1025280079307D907C007F087E001226067BFF7A3A
:102538002379307D907C007F307E001226067BFF59
:0F2548007A2379307D907C007F587E0002260632
:0D2DFC007842743AF2087498F27FE87E0382
:092E0900EF1F70011E144E601A47
:102E1200007869740BF2087464F2786AE214F27052
:082E2200F97869E214F270F284
:032E2A0080DD2226
:102F8D00538E7F5389F0438901758A66758CFCD207
:062F9D00A9D2AFD28C2284
:102FA300538EBF53890F438910E4F58B758DB8D2C7
:062FB300ABD2AFD28E226A
:03000B000212429C
:10124200C0E0C0F0C083C082C0D075D000C000C072
:0D12520001C002C003C004C005C006C007F3
:10125F00C2A9758A66758CFC780CE22401F218E23B
:10126F003400F2C308E2946418E294004004E4F2FC
:10127F0008F2780BE2FE08E2FF7C007D0A1205EA15
:0F128F00ED4C60030213507809E2FB6401703BE1
:10129E0020B2147800E2B4010E780A7401F27816C6
:1012AE0012078C42340000A2B2E4337800F220B36D
:1012BE001308E2B4010E780A7402F2781612078C43
:0B12CE0042200000A2B3E4337801F2DC
:0C12D900EB640260077809E26403706BAC
:1012E50020B2227802E2B4011C7816E2FC08E2FD85
:1012F50008E2FE08E2FFE4FBFA7980783F12002D50
:101305007816120780A2B2E4337802F220B32108DE
:10131500E2B4011C7816E2FC08E2FD08E2FE08E2F0
:10132500FFE4FBFA798078BF12002D78161207804A
:10133500A2B3E4337803F220B40A08E2B4010578D5
:0B1345000F7401F2A2B4E4337804F24C
:101350007813E22401F218E23400F27842E2FE0847
:10136000E2FFC37813E29F18E29E5003021461E487
:10137000F208F2D2A27805E29023A993F59078358D
:10138000E2FFB402227805E204F27829E22401F2B5
:1013900018E23400F2D308E294F018E294554007C2
:1013A0007455F20874F0F2EF702A7805E214F278BE
:1013B00029E224FFF218E234FFF2E2FE08E2FFE441
:1013C000FCFD7B607AEAF9F8C312076A50067828B8
:1013D000E4F208F2C2A2D2A17806E29023A993F522
:1013E000907834E2FF70227806E204F2782BE2244F
:1013F00001F218E23400F2D308E294F018E29455B6
:1014000040077455F20874F0F2EFB4022A7806E24D
:1014100014F2782BE224FFF218E234FFF2E2FE0825
:10142000E2FFE4FCFD7B607AEAF9F8C312076A5038
:1014300006782AE4F208F2C2A17805E2FFB40804B3
:10144000E4F28009EFB4FF0578057407F27806E24C
:10145000FFB40804E4F28009EFB4FF0578067407CE
:10146000F2780BE2FE08E2FF7C007D011205EAED56
:101470004C60030214F77811E264017036D2A07850
:1014800007E29023A993F590E214F27815E224FF85
:10149000F218E234FFF2C2A0E2FE08E2FF4E600F53
:1014A000E4FCFD7B607AEAF9F8C312076A5004781D
:1014B00011E4F27811E2B4022AD2A07807E2902374
:1014C000A993F590E204F27815E22401F218E234CF
:1014D00000F2C2A0D308E2949818E294084004787D
:1014E00011E4F27807E2FFB40804E4F28009EFB4F3
:0914F000FF0578077407F2D2A988
:1014F900D007D006D005D004D003D002D001D00047
:0B150900D0D0D082D083D0F0D0E032F0
:03001B0002293780
:10293700C0E0C0F0C083C082C0D075D000C000C066
:1029470001C002C003C004C005C006C007758B00E4
:10295700758DB8780EE22401F218E23400F2C3084C
:10296700E2943218E294004004E4F208F2780DE2AF
:10297700FE08E2FF7C007D051205EAED4C700D783C
:1029870008E2B40107C2AF1229AED2AFD007D00612
:10299700D005D004D003D002D001D000D0D0D0824F
:0729A700D083D0F0D0E03234
:0D000E00E4F590C2A200C2A000C2A1002231
:03002300022F5F4A
:102F5F00C0E0C0D075D000C000C2987810E599F2DB
:072F6F00D000D0D0D0E03209
:093008007BFF7A2379B1022EE16D
:0E2FCE001221F578097401F2780AE260FB2204
:101D330078097403F21227281225577828E2FE083F
:101D4300E2FFD394F8EE942A403AD3EF94F0EE9462
:101D530055503178087401F2122B66AC06AD07ECCE
:101D6300120336E4FBFA79207841120227781A121B
:101D73000780E47835F278347402F27842E4F208AA
:101D830004F280B77842743AF2087498F2781174C6
:101D930001F27811E270FB78087401F2122B66AC41
:101DA30006AD07EC120336E4FBFA79207841120200
:101DB30027781A120780781AE2FC08E2FD08E2FE8F
:101DC30008E2FF786D1207807816E2FC08E2FD084E
:101DD300E2FE08E2FF121992E4FFFEFD7CBF7816D3
:101DE300E2FB08E2F908E2FA08E2CBF812002D78E8
:101DF3001AE2FB08E2F908E2FA08E2CBF81202C49D
:101E03004095E4FFFEFD7C407816E2FB08E2F9080A
:101E1300E2FA08E2CBF812002D781AE2FB08E2F9A5
:101E230008E2FA08E2CBF81202C460054003021D7F
:101E33009A78117402F27811E270FBE47808F212D6
:101E430024981227AE122E05122834122557122D6C
:101E5300FC78087401F2122B66AC06AD07EC120392
:101E630036E4FBFA79207841120227781A120780A8
:101E7300781AE2FC08E2FD08E2FE08E2FF786D1240
:101E830007807816E2FC08E2FD08E2FE08E2FF1292
:101E93001992780FE2B401B978357402F2E4783418
:101EA300F27828E2FE08E2FFC394F0EE9455400B6B
:101EB300782BE294F018E29455502778087401F2D5
:101EC300BE5506BFF0037835F2782BE2B4F00A185A
:101ED300E2B4550578347401F27842E4F20804F26E
:0D1EE30080BF7842743AF2087498F280FED5
:1015140078097402F21227281225577828E2FE0867
:10152400E2FFD394F8EE942A4039D3EF94F0EE948A
:1015340055503078087401F2122B66AC06AD07ECF6
:10154400120336E4FBFA79207841120227781A1242
:101554000780E47835F2783404F27842E4F208043F
:10156400F280B87842743AF2087498F278117401EF
:10157400F27811E270FB78087401F2122B66AC0663
:10158400AD07EC120336E4FBFA7920784112022706
:10159400781A1207807816E2FC08E2FD08E2FE08D9
:1015A400E2FF08E2FB08E2F908E2FA08E2CBF812EB
:1015B40002C440C2E4FFFEFD7C407816E2FB08E270
:1015C400F908E2FA08E2CBF812002D781AE2FB08D7
:1015D400E2F908E2FA08E2CBF81202C45098D37890
:1015E4002BE2949818E2943A403178087401F2128C
:1015F4002B66AC06AD07EC120336E4FBFA792078CF
:1016040041120227781A12078078357401F278346F
:1016140004F27842E4F20804F280C37842743AF2A5
:10162400087498F2122B66AC06AD07EC120336E48C
:10163400FBFA79207841120227781A120780781A67
:10164400E2FC08E2FD08E2FE08E2FF786D12078082
:101654007816E2FC08E2FD08E2FE08E2FF121992A5
:10166400E4FFFEFD7CBF7816E2FB08E2F908E2FA2B
:1016740008E2CBF812002D781AE2FB08E2F908E23E
:10168400FA08E2CBF81202C4409AE4FFFEFD7C3F64
:101694007816E2FB08E2F908E2FA08E2CBF8120055
:1016A4002D781AE2FB08E2F908E2FA08E2CBF81214
:1016B40002C46005400302162878117402F27811FE
:1016C400E270FBE47808F21224981227AE122E0579
:1016D400122834122557122DFC78087401F2122BAB
:1016E40066AC06AD07EC120336E4FBFA79207841C8
:1016F400120227781A120780781AE2FC08E2FD0821
:10170400E2FE08E2FF786D1207807816E2FC08E238
:10171400FD08E2FE08E2FF121992780FE2B401B963
:1017240078357402F2E47834F27828E2FE08E2FFB5
:10173400C394F0EE9455400B782BE294F018E294A5
:1017440055502778087401F2BE5506BFF00378356A
:10175400F2782BE2B4F00A18E2B455057834740137
:10176400F27842E4F20804F280BF7842743AF20854
:051774007498F280FEF4
:1029AE00785174FFF2087423F20874A4F27816E2D8
:1029BE00FC08E2FD08E2FE08E2FF78541207807B75
:1029CE00FE7A00794A120E307BFE7A00794A7D1823
:1029DE007C007F207E00122606785174FFF2087468
:1029EE0023F20874A4F2781AE2FC08E2FD08E2FE73
:1029FE0008E2FF78541207807BFE7A00794A120EA5
:102A0E00307BFE7A00794A7D687C007F207E000252
:022A1E0026068A
:0300000002269C39
:0C269C00787FE4F6D8FD7581220226E369
:102AD00082423A98813500813400843E41A0000052
:102AE000843A3E99999A843641200000842C000053
:082AF00000008430000000002A
:051992007869120780D6
:10199700786DE2FB08E2F908E2FA08E2CBF8C0004A
:1019A7007869E2FC08E2FD08E2FE08E2FFD00012D7
:1019B7000029E4FBFA7980784012011E787112073A
:1019C700807871E2FC08E2FD08E2FE08E2FF783E5B
:1019D700E2FB08E2F908E2FA08E2CBF812011E7806
:1019E70071E2FB08E2F908E2FA08E2CBF812002DEF
:1019F700C004C005C006C007782CE2FB08E2F9085E
:101A0700E2FA08E2CBF8C0007871E2FC08E2FD08D0
:101A1700E2FE08E2FFD0001200297836E2FB08E276
:101A2700F908E2FA08E2CBF812011ED003D002D07F
:101A370001D00012002DC004C005C006C0077830D1
:101A4700E2FC08E2FD08E2FE08E2FF783AE2FB0862
:101A5700E2F908E2FA08E2CBF812011ED003D0023D
:101A6700D001D00012002D12036F7875EEF208EF47
:101A7700F27871E2FC08E2FD08E2FE08E2FF782C4A
:101A87001207807830E2FC08E2FD08E2FE08E2FF78
:101A97007871E2FB08E2F908E2FA08E2CBF81200F3
:101AA7002D7830120780E4FFFE7DC87C427830E253
:101AB700FB08E2F908E2FA08E2CBF81202C4600D6B
:101AC700400B783012078C42C800008023E4FFFEE9
:101AD7007DC87CC27830E2FB08E2F908E2FA08E246
:101AE700CBF81202C45009783012078CC2C8000024
:101AF7007875E2FE08E2FFD39496EE648094804006
:101B07000918E4F2087496F28014C3EF946AEE643D
:101B170080947F5009787574FFF208746AF27875BB
:101B2700E2FE08E2FFD39400EE64809480401074D4
:101B3700979F7843F2E49E18F2E47835F218F2782A
:101B470075E2FE08E2FFC3EE64809480501EC3E492
:101B57009FFFE49EFE18F208EFF2C374979F784345
:0C1B6700F2E49E18F278357402F218F2D5
:011B7300224F
:102EC700C2AF53890F438920759850758DFD758B57
:0A2ED700FDD2ACD28ED29CD2AF2205
:102EE100C2AC1205926010F599740129F9E43AFA1D
:092EF1003099FDC29980EBD2ACCE
:012EFA0022B5
:042AF8008244000014
:0A2FE800E4FEEEC39F50030E80F8D4
:012FF20022BC
:102E2D00E4FDFCC3ED9FEC9E5021E4FBFA90000005
:102E3D00A3E582641A458370F70BBB00010AEB64AE
:0B2E4D00244A70E90DBD00010C80D884
:012E58002257
:102F1500C2B57FFA122FE8D2B57F3230B506DFFB96
:082F2500E4FEFF227E007F01A3
:012F2D002281
:0C2D9700122F157F017E00122E2D7FCC24
:022DA300AD077A
:102DA500D2B500E4FBFAC2B500ED1392B57F1E1251
:102DB5002FE8D2B500EDC313FD0BBB00010AEB6490
:042DC500084A70E266
:012DC90022E7
:102DCA00E4FDFBFAC2B500D2B57F01122FE8A2B525
:102DDA00E433FCC43333335480FFEDC3134FFD7F18
:102DEA0019122FE80BBB00010AEB64084A70D5AF31
:012DFA0005D3
:012DFB0022B5
:102B6600E4FFFE122D977F44122DA3122D977FBEF0
:102B7600122DA3122DCAA907122DCAEFFEE9FFFDD9
:102B8600AC06EC120336E4FBFA7920783F12011EFC
:102B960012036FC3EF94BCEE648094825012EF94DC
:102BA60000EE6480948040087844EEF208EFF2224A
:072BB6007844E2FE08E2FF93
:012BBD0022F5
:0C2FDC00C2AF53E71843E70143E780222F
:0930110053E77FE4F5E6D2AF229B
:0B2FF300122FDC75E64675E6B90022DF
:102F2E00AD07AC06ECF5E3EDF5E453E5F843E5014A
:092F3E00122FF3123011AFE22250
:102F7600EE54FEFE7F00F5E3E4F5E453E5F843E5A1
:072F860003122FF3023011CA
:102EFB00AB07AA06EAF5E3EBF5E453E5F843E50285
:0A2F0B00AF058FE2122FF302301120
:042F4700AB07AA0624
:102F4B00122F2EA907EB2401FFE43EFE122F2EEFCA
:032F5B00FEE9FF8D
:012F5E002250
:042EA4008F828E8308
:102EA800EDFBECFDFC122F76AF82AE83AD03122E44
:0F2EB800FBAF82EF2401FFE43EFEAD04022EFBD0
:1007E4000000000000000000000000000000000005
:1007F400000000080808080808080000181800008D
:1008040000486C24120000000000000000000000FA
:100814000000002424247F1212127F1212120000FE
:100824000000081C2A2A0A0C1828282A2A1C08084E
:1008340000000022251515152A585454542200008E
:100844000000000C1212120A76252911916E000084
:100854000006060403000000000000000000000081
:100864000040201010080808080808101020400054
:1008740000020408081010101010100808040200E8
:100884000000000008086B1C1C6B08080000000036
:1008940000000000080808087F0808080800000095
:1008A4000000000000000000000000000606040331
:1008B4000000000000000000FE0000000000000036
:1008C4000000000000000000000000000606000018
:1008D4000000804040202010100808040402020098
:1008E40000000018244242424242424224180000BE
:1008F400000000080E08080808080808083E000060
:100904000000003C4242422020100804427E0000C5
:100914000000003C4242201820404042221C0000BB
:10092400000000203028242422227E202078000089
:100934000000007E0202021A26404042221C0000EF
:10094400000000382402021A264242422418000001
:100954000000007E22221010080808080808000081
:100964000000003C4242422418244242423C00001F
:10097400000000182442424264584040241C0000F5
:100984000000000000001818000000001818000003
:100994000000000000000008000000000008080437
:1009A4000000004020100804020408102040000049
:1009B4000000000000007F0000007F000000000035
:1009C4000000000204081020402010080402000067
:1009D4000000003C4242464020101000181800005D
:1009E4000000001C225A555555552D42221C00006A
:1009F4000000000808181414243C224242E70000B6
:100A04000000001F2222221E22424242221F000016
:100A14000000007C4242010101010142221C00004D
:100A24000000001F2242424242424242221F000072
:100A34000000003F4212121E12120242423F000006
:100A44000000003F4212121E1212020202070000AE
:100A54000000003C2222010101712122221C00001D
:100A6400000000E7424242427E42424242E7000026
:100A74000000003E0808080808080808083E0000AE
:100A84000000007C10101010101010101010110F26
:100A94000000007722120A0E0A12122222770000A6
:100AA400000000070202020202020202427F00006A
:100AB40000000077363636362A2A2A2A2A6B0000A6
:100AC400000000E346464A4A52525262624700001E
:100AD4000000001C2241414141414141221C0000CF
:100AE4000000003F424242423E020202020700006E
:100AF4000000001C2241414141414D53321C600021
:100B04000000003F4242423E1212222242C700002D
:100B14000000007C4242020418204042423E000091
:100B24000000007F4908080808080808081C00009D
:100B3400000000E74242424242424242423C00003C
:100B4400000000E74242222424141418080800007C
:100B54000000006B494949495555362222220000BC
:100B6400000000E7422424181818242442E7000057
:100B7400000000772222141408080808081C00004A
:100B84000000007E2120101008040442423F0000AF
:100B94000078080808080808080808080808780001
:100BA400000002020404080808101020202040401D
:100BB400001E1010101010101010101010101E0035
:100BC40000384400000000000000000000000000A5
:100BD400000000000000000000000000000000FF12
:100BE40000060800000000000000000000000000F3
:100BF400000000000000003C4278444242FC000037
:100C0400000000030202021A26424242261A000091
:100C140000000000000000384402020244380000D2
:100C240000000060404040784442424264D80000E2
:100C3400000000000000003C427E0202423C000032
:100C4400000000F08808087E08080808083E000034
:100C5400000000000000007C22221C023C42423CB6
:100C6400000000030202023A4642424242E7000008
:100C74000000000C0C00000E08080808083E0000E4
:100C84000000003030000038202020202020221EC8
:100C94000000000302020272120A161222770000F8
:100CA4000000000E0808080808080808083E0000AC
:100CB400000000000000007F9292929292B7000020
:100CC400000000000000003B4642424242E70000B0
:100CD400000000000000003C42424242423C00004E
:100CE400000000000000001B26424242221E0207B0
:100CF400000000000000007844424242447840E092
:100D040000000000000000774C040404041F0000ED
:100D1400000000000000007C42023C40423E000013
:100D2400000000000008083E080808080830000019
:100D340000000000000000634242424262DC000006
:100D440000000000000000E742242414080800000A
:100D540000000000000000EB494955552222000024
:100D6400000000000000007624181818246E00000B
:100D740000000000000000E74224241418080807BB
:100D8400000000000000007E22100808447E0000DD
:100D940000C0202020202010202020202020C0005F
:100DA400101010101010101010101010101010103F
:100DB40000060808080808100808080808080600BB
:100DC4000C32C2000000000000000000000000001F
:020008002000D6
:102C9E008F20A20792A6C2A7D2A7A20692A6C2A76B
:102CAE00D2A7A20592A6C2A7D2A7A20492A6C2A795
:102CBE00D2A7A20392A6C2A7D2A7A20292A6C2A789
:102CCE00D2A7A20192A6C2A7D2A7A20092A6C2A77D
:032CDE00D2A72258
:04301A00120003FF9E
:05301E00D2A5022C9E6A
:052FB900E2FE08E2FF4A
:102FBE00AD07AC06D2A5ECFF122C9EAF05022C9EDF
:05000300C2A5022C9EC5
:0A2FFE00120003AE04AF05022FBE5F
:092BBE007893E583F208E582F248
:102BC700788DEEF208EFF27F2A12000318E2FF1267
:102BD700301E08E2FF12301EEAFF12301EAF03124A
:102BE700301E7F2B120003ECFF12301EAF05123090
:102BF7001E7893E2FF12301E08E2FF12301E7F2C70
:032C0700020003C5
:10177900D2A320A357E4FDFCFFFE122FFE7BFF7AC4
:10178900007908E4FDFCFFFE122606786D12078C2D
:1017990000000000E47871F2FDFCFFFE1223CCE4A6
:1017A900786FF2FBFAFDFCFFFE1228BAE4FDFCFF9C
:1017B900FE122CE1E4786FF208F2FBFAFDFCFFFE61
:1017C900122A20E4FBFDFCFFFE121EF0C2A47F05D5
:1017D9007E00122E80D2A47F057E00122E80C2A325
:1017E9007FCB1200037F3912301E7F2C12301EE48A
:1017F900FF12301E7F3412301E7F0212301E7FCF3F
:1018090012301A7FC112301E7F3012301E7FE8124B
:1018190000037F8512301EFF12301E7F7812301EA2
:101829007FEA12301A12301E7FED1200037F641214
:10183900301E7F0312301E7F1212301E7F8112303C
:101849001E7FF71200037F2012301E7FC012000393
:101859007F2312301E7FC11200037F1012301E7FBA
:10186900C51200037F3E12301E7F2812301E7FC72B
:101879001200037F8612301E7F361200037F481242
:10188900301E7F3A1200037F5512301E7FB112308D
:101899001A7F1812301E7FB61200037F0812301EFD
:1018A9007F8212301E7F2712301E7FF212301A7F7C
:1018B900261200037F0112301E7FE01200037F0F02
:1018C90012301E7F3112301E7F2B12301E7F0C12F8
:1018D900301E7F0E12301E7F0812301E7F4E1230CE
:1018E9001E7FF112301E7F3712301E7F0712301E05
:1018F9007F1012301E7F0312301E7F0E12301E7FA2
:101909000912301EFF12301E7FE112301A7F0E12AB
:10191900301E7F1412301E7F0312301E7F111230C9
:101929001E7F0712301E7F3112301E7FC112301EFA
:101939007F4812301E7F0812301E7F0F12301E7F23
:101949000C12301E7F3112301E7F3612301E7F0F6F
:1019590012301E7F2A12301A12301E12301E7FEFEB
:1019690012301E7F2B12301A12301E0F12301E7FBA
:101979003F12301E7F111200037F01FE122E807F5D
:09198900291200037F2C02000367
:072C0A007870EEF208EFF212
:102C11007893E4F208749FF27B7F7A00E4FDFCFF75
:102C2100FE122BC7E47872F208F2E4FBFA78701214
:102C31002FB90BBB00010AEB64A04A70F07873E274
:102C41002401F218E23400F2C308E2948018E294FD
:032C51000040D769
:012C5400225D
:102D6200786DE2FE08E2FF786AE22FFF18E23E7811
:102D72006FFEE2FC08E2FD786CE22DFD18E23CFCFD
:102D82008D828C83AB07AA06122BBE7846E2FE0820
:052D9200E2FF022FBE6C
:102CE1008D828C83AB07AA06EB24FFFFEA34FFFE3B
:102CF100E58224FFFDE58334FFFCEB2401FBE43A8C
:102D0100FAE58224017870F2E4358318F27846E21C
:102D1100F58308E2F5827871E583F208E582F20233
:022D21002AFD89
:102AFD007869EEF208EFF208ECF208EDF208EAF26E
:032B0D0008EBF2E0
:102B100008E2F58308E2F582122BBE786BE2FF082B
:102B2000E27873CFF208EFF2786FE2FE08E2FFD3AB
:102B30007874E29F18E29E502C7869E2FE08E2FB6E
:102B4000AA06C3786EE29B18E29A400C7871122FA5
:102B5000B90BBB00010A80EA7874E22401F218E2A2
:052B60003400F280C307
:012B6500224D
:101B7400FBE2F58308E2F5827877E583F208E582F3
:011B8400F26E
:071B85007871EEF208EFF2A7
:101B8C00E4787BF208F208F208F27871E2FE08E2DF
:101B9C00FFC3EB9FFFEA9EFE787FF208EFF2C3785B
:101BAC0078E29D7982F318E29C19F37871E2FB08D4
:101BBC00E27889CBF208EBF208ECF208EDF2D3EF05
:101BCC009400EE6480948040097885E4F20804F275
:101BDC008024787FE2FE08E2FF4E70077885F208D9
:101BEC00F2801374FF7885F208F2C3E49FFFE49E41
:101BFC00787FF208EFF27881E2FE08E2FFD39400DE
:101C0C00EE6480948040097887E4F20804F2801E28
:101C1C00EF4E70077887F208F2801374FF7887F222
:101C2C0008F2C3E49FFFE49E7881F208EFF278811A
:101C3C00E2FE08E2FF787FE2FC08E2FDD39FEE644F
:101C4C0080F8EC64809878834007ECF208EDF28021
:101C5C0005EEF208EFF2E47879F208F27884E224E7
:101C6C0001FF18E23400FED3787AE29F18E29E401E
:101C7C0003021D327889E2FE08E2FF08E2FC08E26A
:101C8C00FD122D82787FE2FE08E2FF787CE22FF2D3
:101C9C0018E23EF27881E2FE08E2FF787EE22FF253
:101CAC0018E23EF27883E2FE08E2FF787BE2FC0861
:101CBC00E2FDD39FEE6480F8EC648098402078833A
:101CCC00E2FE08E2FFED9F787CF2EC9E18F278853C
:101CDC00E2FE08E2FF788AE22FF218E23EF2788305
:101CEC00E2FE08E2FF787DE2FC08E2FDD39FEE64A1
:101CFC0080F8EC64809840207883E2FE08E2FFEDE7
:101D0C009F787EF2EC9E18F27887E2FE08E2FF786C
:101D1C008CE22FF218E23EF2787AE22401F218E219
:061D2C003400F2021C6805
:011D3200228E
:102A2000786DEAF208EBF27869EEF208EFF208EC62
:102A3000F208EDF208E2FA08E2786B121B7478698A
:102A4000E2FA08E2FBFFAE0208E2FC08E2FD786F62
:102A5000121B757869E2FE08E2FF786FE2FC08E27B
:102A6000FD786DE2FA08E208121B74786DE2FA084C
:102A7000E2FBFFAE02786BE2FC08E2FD786FE2F564
:102A80008308E2F5827877E583F208E582F2021B9B
:012A900085C0
:0D1EF0007869EEF208EFF208ECF208EDF26E
:101EFD00E408F208F2EBFF7E0008EEF208EFF2259F
:101F0D00E0FFEE33FEC374039F7872F2E49E18F285
:101F1D00786FE2FE08E2FFD3786EE29FEE6480F503
:101F2D00F018E2648095F04003022098C3786AE2CD
:101F3D009FFF18E29EFE786DE2FC08E2FDC3786C0F
:101F4D00E29DFD18E29CFC122D82786FE2FE08E204
:101F5D00FF786AE22FFF18E23EFE786DE2FC08E2A0
:101F6D00FDC3786CE29DFD18E29CFC122D82786D0C
:101F7D00E2FE08E2FFC3786AE29FFF18E29E122D8F
:101F8D0071786FE2FE08E2FFC3786AE29FFF18E204
:101F9D009EFE786DE2FC08E2FDC3786CE29DFD18B3
:101FAD00E29CFC122D82786DE2FE08E2FFC3786A96
:101FBD00E29FFF18E29EFE786FE2FC08E2FDC37817
:101FCD006CE29DFD18E29CFC122D82786FE2FE08FA
:101FDD00E2FF786AE22FFF18E23E786D122D7378DA
:101FED006DE2FE08E2FF786AE22FFF18E23EFE780E
:101FFD006FE2FC08E2FDC3786CE29DFD18E29CFCEB
:10200D00122D82122D62786FE2FE08E2FFC3786A0C
:10201D00E29FFF18E29EFE786D122D74786EE22419
:10202D0001F218E23400F2C37871E26480948050BA
:10203D0020786DE2FE08E27802C333CE33CED8F9B4
:10204D002406FFE43EFE7872E22FF218E23EF280A3
:10205D0034786FE2FE08E2FFC3786EE29FFF18E26C
:10206D009EFEEF7802C333CE33CED8F9240AFFE4B7
:10207D003EFE7872E22FF218E23EF218E224FFF2F1
:0B208D0018E234FFF2122D62021F1D4A
:012098002225
:102099007875EEF208EFF208ECF208EDF208EBF2CF
:1020A9007846E2FF08E2787FCFF208EFF27875E22E
:1020B900FE08E2FFC374789FFFE49EFE18F208EF62
:1020C900F2787DEEF208EFF2D39480EE94004003AB
:1020D9000221F47877E2FC08E2FD94A0EC94004038
:1020E900030221F47879E224E0F27875E2FE08E24D
:1020F900FF2407FBE43EFA7878E2240FF58218E220
:1021090034007893122BC2787AE27075F97879E203
:1021190075F010A4FFE97C002FFFEC35F0FE74E4A4
:102129002FF58274073EF583E493787BF2E408F295
:10213900787BE230E70474FF8001E47846F208F224
:102149007846122FB9787BE225E0F27876E224010D
:10215900F218E23400F2787CE204F2E2C394084017
:10216900CF787DE2FF08E27875CFF208EFF2787850
:10217900E22401F218E23400F209E96410708E8059
:102189005DE4F97879E275F010A4FFE97C002FFF8E
:10219900EC35F0FE74E42FF58274073EF583E49381
:1021A900787BF2E408F2787CE2FFC39408502A189D
:1021B900E230E7197876E22FFF18E23400FEE9FDF4
:1021C9007878E22DFD18E23400FC122D82787BE24A
:1021D90025E0F208E204F280CD09E9B410A5787F80
:0B21E900E2FF08E27846CFF208EFF2B8
:0121F40022C8
:072C55007875EFF208EDF2C3
:102C5C000812078C000000017876E2FF14F2EF6096
:102C6C002308E2FB08E2F908E2FA08E2CBF8C0001C
:102C7C007875E2FFE4FCFDFED00012063F78771277
:102C8C00078080D47877E2FC08E2FD08E2FE08E2D7
:012C9C00FF38
:012C9D002214
:0D23CC007869EEF208EFF208ECF208EDF28D
:1023D900E47874F2786D0808E2FE08E2FFE4FCFD97
:1023E900786D120780E47872F27871E2FF08E2FEF4
:1023F900C39F4003022497C3EF9E14FD7F0A122C4A
:1024090055C004A905AA06AB07786DE2FC08E2FDF0
:1024190008E2FE08E2FFD0001206CAE47B0AFAF9D4
:10242900F81206CA7873EBF208E270347871E21494
:10243900FF08E2FEC39F502808E2701FEE75F008FE
:10244900A4FF786AE22FFF18E235F0FE786BE2FC10
:1024590008E2FDE4787AF27B20802878747401F22E
:102469007872E275F008A4FF786AE22FFF18E23566
:10247900F0FE786BE2FC08E2FD7873E22430FBE4BD
:0E248900787AF21220997872E204F20223F2BD
:012497002222
:1028BA007869EEF208EFF208ECF208EDF208EAF2B3
:0328CA0008EBF226
:1028CD00E47870F2786FE2F908E2FFC399505AC3C9
:1028DD00E99F14FD7F0A122C55C004A905AA06AB69
:1028ED0007786DE2FE08E2FFE4FCFDD0001206CA97
:1028FD00E47B0AFAF9F81206CAAF037871EFF21801
:10290D00E275F008A4FF786AE22FFF18E235F0FEB9
:10291D00786BE2FC08E2FDEB2430FBE4787AF212EE
:09292D0020997870E204F2809B0D
:01293600227E
:102606007869EEF208EFF208ECF208EDF208EBF268
:1026160008EAF208E9F2786DE2FB08E2FA08E2F964
:102626001205926070D3786AE2948018E2940040B2
:102636000FE4F208F2786CE22410F218E23400F2A9
:10264600D3786CE294A018E294004010E47869F222
:1026560008F208F208F2FF7EF8122C0A7869E2FE08
:1026660008E2FF08E2FC08E2FD08E2FB08E2FA08DD
:10267600E2F9120592FBE4787AF2122099786AE27E
:102686002408F218E23400F2786FE22401F218E22C
:062696003400F2808122F5
:092E8000EF1F70011E144E601AD0
:102E8900007869740BF2087464F2786AE214F270DB
:082E9900F97869E214F270F20D
:032EA10080DD22AF
:100026000203DBE86480F8E933E83360110460F02A
:10003600ED33EC337009E8FCE9FDEAFEEBFF220440
:1000460060DED3EB9FEA9EE99DE8C2E78CF0C2F73B
:1000560095F0400CE8CCF8E9CDF9EACEFAEBCFFB07
:100066001203A685D0F05804700320D5B3E80470B7
:10007600075002B2D50203E592D5EC0460F7E4CC52
:10008600C0E0C398F8603B94186008400DD0E0FBD0
:100096000203BDE4FBFAC9FC8028E830E406E4C9A3
:1000A600FBE4CAFCE830E305E4C9CACBFCE8540724
:1000B6006010F8C3E913F9EA13FAEB13FBEC13FC2F
:1000C600D8F130F52FC3E49CFCEF9BFFEE9AFEEDD2
:1000D60099FDD0E0FBEF4E4D4C701222DB0302037C
:1000E600E2EC2CFCEF33FFEE33FEED33FDED30E7B3
:1000F600EB0203BDEF2BFFEE3AFEED39FDD0E0FB40
:1001060050130BBB00030203E5ED13FDEE13FEEFE8
:0801160013FFEC13FC0203BD12
:10011E00EC4D6011E8497017ED33EC3304600DE4DB
:10012E00FCFFFEFD22E933E8330470F80203DB1214
:10013E0003A658046009E4CC248150062850090215
:10014E0003E52840030203E2C0E0EB4A7044B980A5
:10015E0006D0E0FB0203D1EF4E701CBD8008EBFF12
:10016E00EAFEE9FD80EBE98DF0A4FEE5F002020760
:10017E00E9CDF9EAFEEBFFEF89F0A4FCE5F0CE89BC
:10018E00F0A42EFFE435F0CD89F0A42DFEE435F079
:10019E008067EF4E7005BD80D780C3EF8BF0A4ACA7
:1001AE00F0EE8BF0A42CFCE435F0F8EF8AF0A42CE2
:1001BE00E5F038FCE433CB8DF0A42CFCE5F03BF8F5
:1001CE00EE8AF0A42CFCE5F038F8E433CF89F0A4E5
:1001DE002CFCE5F038CF3400CE89F0A42FFFE5F0EB
:1001EE003EFEE433C98DF0A42EFEE5F039CD8AF043
:1001FE00A42FFFE5F03EFEE43DFD33D0E0FB5007BB
:10020E000BBB000F0203E5EC2CFCEF33FFEE33FECD
:06021E00ED33FD0203BDFB
:100224000203E5EC5D046005E8590470030203DB96
:100234001203A6580460F6EC4860F2EC7004FDFE6C
:10024400FF22C860DB2481C85009C39860025006AD
:100254000203E29850CAF582E9294B4A7005AB8241
:100264000203D175F0007C1A7880C3EF9BEE9AEDFF
:1002740099400DC3EF9BFFEE9AFEED99FDE842F025
:10028400DC23ACF0D0E0FFD0E0FED0E0FDAB822078
:10029400E7101BEB60BAEC2CFCEF33FFEE33FEED02
:1002A40033FD0203BDE803F830E705C0F075F00044
:1002B400EF2FFFEE33FEED33FD40B830E7C280AAE6
:1002C40074F8CC6480CCC86480C8F582046043C3ED
:1002D400EB9FF5F0EA9E42F0E99D42F0E89C45F080
:1002E40060305018E5825FFFE582F42B5582FB50A5
:1002F400210ABA001D09B90019088016E5825BFBC2
:10030400E582F42F5582FF50090EBE00050DBD0095
:10031400010CC3EB9FF5F0EA9E42F0E99D42F0E840
:0D0324009C45F06007CC4820E701B3EC22B7
:1003310075F020800E75F010800575F0087D007E47
:10034100007F003392D530D50312075CEC334010A7
:10035100EF33FFEE33FEED33FDEC33FCD5F0ED2250
:0E036100E5F0247EA2D513CC92E7CDCEFF228C
:10036F00EDD2E7CD33EC3392D524814006E4FFFE86
:10037F00FDFC22FCE4CFCECDCC24E0501174FF80E5
:10038F00EDC3CC13CCCD13CDCE13CECF13CF047082
:07039F00F030D5DE02075C1F
:100DD400E5082451F8E2050822784E300F027851D4
:100DE400E475F0011207A50205922008EB7F2ED2CC
:100DF400088018EF540F2490D43440D4FF300C0BE7
:100E0400EF24BFB41A0050032461FFE50960021502
:100E140009050CE50C7002050B300F0D784EE475D6
:100E2400F0011207A5EF0205D8022E597403D20F60
:100E34008003E4C20FF508784E1207B5E4F509F50E
:100E44000BF50CE50960077F20120E0F80F5750A7B
:100E5400FFC209C208C20AC20BC20DC20EC21012DE
:100E64000DDDFF700D300F057F00120E20AF0CAEAC
:100E74000B22B4255FC2D5C20C120DDDFF24D0B401
:100E84000A00501A75F00A780930D50508B6FF0132
:100E940006C6A426F620D5047002D20B80D924CF2E
:100EA400B41A00EF5004C2E5D20C02110CD209802E
:100EB400C6D20880C0D20A80BCD2D580BAD20D80F6
:100EC400B47F20120E0F200A077401B5090040F107
:100ED400120DD4FF120E0F020E47D210D20E8095BF
:100EE400120DD4FB120DD4FA120DD4F94A4B70062C
:100EF40079037A127BFF200A2EE509602A7E008E90
:100F0400827583001205AB60060EEE650A70F0C2AE
:100F1400D5EBC0E0EAC0E0E9C0E0EE12116CD0E02D
:100F2400F9D0E0FAD0E0FB120592FF60AAEBC0E032
:100F3400EAC0E0E9C0E0120E0FD0E02401F9D0E0ED
:100F44003400FAD0E0FBE50A0460DCD50AD98087D6
:100F5400D20A80A212114F60F7E50A70010412034D
:100F6400F0A90A600DE50A600914F50A1211F6EFFA
:100F740060F3EA30E702F404C3995077EAF4250AEF
:100F84000430E701E404F50A800D12114F60C1EA50
:100F9400050A250A1203F0EA7864F230E701E42531
:100FA4000A04D50A04200D011412116CE4C0E012E5
:100FB40011F67864E2601320E70714F2120DF7804B
:100FC4002204F2D0E014C0E07F00120DF7E50A60BD
:100FD40007120DEE150A800B300D03120DEED0E052
:100FE400020E47D0E00480C512114F60A0E50A0448
:100FF4001203F07864EAF2E50A200D026001042489
:0C1004000412116C74FF04C0E01211F61D
:10101000120DF7E50A200D026003120DEED0E0B5C7
:101020000AE87F45120E017864E27F2B30E7047FE7
:101030002DF404C0E0120E0FD0E075F00A84C0F069
:10104000120DF8D0E0120DF8020E477910800279E7
:1010500008C20EC2108008D2D5790A8004790AC26B
:10106000D5E50A047002F50AE4FAFDFEFF120DD47C
:10107000FC7B08200913120DD4FD7B1030080A12E6
:101080000DD4FE120DD4FF7B20EC3382D592D550C7
:1010900013C3E43008069FFFE49EFEE42009039D8D
:1010A000FDE49CFCE4CBF8C209EC700CCFCECDCCB7
:1010B000E824F8F870F38017C3EF33FFEE33FEED4A
:1010C00033FDEC33FCEB33FB994002FB0FD8E9EB2B
:1010D000300905F8D0E0C448B209C0E00AEC4D4E32
:1010E0004F78207B0070C2EAB50A0040BCC0E01215
:1010F000116ED0F0D0E0200904C4C0E0C4B209C031
:10110000F0120DF8D0F0D5F0EB020E471207BE0E2C
:10111000E453104B580EB54C0EB142104F4F1057C0
:10112000441057490ECA43105D550F8E460FEC45CB
:101130000F58471223500EB92D0EBD2E0EE02B0E68
:10114000C1230EDE20120C2A0E794800000ED8E5CD
:101150000AB4FF03750A06120DD4FC120DD4FD1259
:101160000DD4FE120DD4FF785D02041F790AA2D5BA
:10117000200B14300D09B910020404B9080104A2AF
:10118000D5200E02500104200A68920AB5090050C9
:1011900034C0E07F20300B197F30A20A720E720D2E
:1011A000500F1211C5C20AC20EC20DC2107F30808C
:1011B0000F300D03E9C0E0120E0F300D03D0E0F93F
:1011C000D0E0B509CC300D177F30B9100C120E0FDE
:1011D0007F58300C077F788003B90803120E0F3058
:1011E0000A057F2D020E0F7F202010F87F2B200E86
:1011F000F322920A80CF7F00B407005005245DF8E7
:10120000E2FF22286E756C6C2900D209120DD430D1
:1012100009F8C209780930D50108F6020E792D5077
:10122000434958120DD42403B405004001E4901240
:101230001E93120E00743A120E00D20B75090402AE
:02124000104B51
:1003A600E9D2E7C933E833F892D5EDD2E7CD33EC9D
:0703B60033FC5002B2D52216
:1003BD00EC30E7100FBF000C0EBE00080DBD0004A1
:1003CD000BEB6014A2D5EB13FCED92E7FD2274FF4D
:1003DD00FCFDFEFF22E480F8A2D574FF13FC7D80A6
:0303ED00E480EFBA
:1003F000F920E72824F950037907E4F42402FB18D4
:10040000DBFDE224FB5014E9600DE4F218E204F293
:0F041000B40A08E4F2D9F57401F20A22C2D52227
:10041F00ED33EC3392D5FA602AB4FF33EDC2E77BAC
:10042F00FF60067A047944E4227A04794D20D504DA
:10043F007A047948224E614E002B494E46002D49D1
:10044F004E4600E47A08F208DAFC7B00740722E8D3
:10045F00C0E0ECC0E0EDC0E0EEC0E0EFC0E0EA7558
:10046F00F010A4CAABF075F04DA42BFBE435F0FCF3
:10047F00EA2410FAEB34C5FBEC34D9FCEDC2E7FFEC
:10048F0075F056A4F42411C5F0F434C58FF0A42AE6
:10049F00E5F03BE43CF220E714120552D0E0FFD028
:1004AF00E0FED0E0FDD0E0FC1202278014F404122D
:1004BF000552D0E0FFD0E0FED0E0FDD0E0FC12010D
:1004CF001ED0E0F8E2FAEDD2E7CD33EC332482FB15
:1004DF00E4C3CF33CFCE33CECD33CD33DBF37B0776
:1004EF0075F00A846004F2081B0AE5F0F2088FF039
:1004FF00740AA4FFACF08EF0740AA42CFEACF0507A
:10050F00010C8DF0740AA42CFDE435F0F208DBDE4B
:03051F007407223C
:100522003F8000004120000042C80000447A0000E1
:10053200461C400047C35000497424004B18968063
:100542004CBEBC205A0E1BCA6753C21C749DC5AE5A
:10055200FB60065407601C2323120580EB543860AD
:100562000912056C12057B12011EECF8EDF9EEFA88
:10057200EFCB22EB12057B80F1543803241C90054B
:1005820022FE93FC0EEE93FD0EEE930ECE93FF220F
:1026A800022D23E493A3F8E493A34003F68001F2F8
:1026B80008DFF48029E493A3F85407240CC8C33333
:1026C800C4540F4420C8834004F456800146F6DF02
:1026D800E4800B0102040810204080902A91E47ED7
:1026E800019360BCA3FF543F30E509541FFEE493F7
:1026F800A360010ECF54C025E060A840B8E493A3BE
:10270800FAE493A3F8E493A3C8C582C8CAC583CAE8
:10271800F0A3C8C582C8CAC583CADFE9DEE780BEA0
:012AFC0000D9
:10059200BB010689828A83E0225002E722BBFE0267
:0905A200E32289828A83E493229A
:1005AB00BB010CE58229F582E5833AF583E0225005
:1005BB0006E92582F8E622BBFE06E92582F8E2224F
:0D05CB00E58229F582E5833AF583E4932269
:1005D800BB010689828A83F0225002F722BBFE0102
:0205E800F322FC
:1005EA00BC000BBE0029EF8DF084FFADF022E4CCF5
:1005FA00F875F008EF2FFFEE33FEEC33FCEE9DECBE
:10060A00984005FCEE9DFE0FD5F0E9E4CEFD22ED03
:10061A00F8F5F0EE8420D21CFEADF075F008EF2F4D
:10062A00FFED33FD4007985006D5F0F222C398FD3E
:05063A000FD5F0EA22DB
:10063F00E88FF0A4CC8BF0A42CFCE98EF0A42CFC5A
:10064F008AF0EDA42CFCEA8EF0A4CDA8F08BF0A4D8
:10065F002DCC3825F0FDE98FF0A42CCD35F0FCEB37
:10066F008EF0A4FEA9F0EB8FF0A4CFC5F02ECD39FC
:0F067F00FEE43CFCEAA42DCE35F0FDE43CFC2269
:10068E0075F008758200EF2FFFEE33FECD33CDCC23
:10069E0033CCC58233C5829BED9AEC99E5829840A6
:1006AE000CF582EE9BFEED9AFDEC99FC0FD5F0D683
:1006BE00E4CEFBE4CDFAE4CCF9A88222B800C1B9AD
:1006CE000059BA002DEC8BF084CFCECDFCE5F0CBEB
:1006DE00F97818EF2FFFEE33FEED33FDEC33FCEB24
:1006EE0033FB10D703994004EB99FB0FD8E5E4F9DF
:1006FE00FA227818EF2FFFEE33FEED33FDEC33FCCC
:10070E00C933C910D7059BE99A4007EC9BFCE99ABF
:10071E00F90FD8E0E4C9FAE4CCFB2275F010EF2F04
:10072E00FFEE33FEED33FDCC33CCC833C810D70704
:10073E009BEC9AE899400AED9BFDEC9AFCE899F83F
:0E074E000FD5F0DAE4CDFBE4CCFAE4C8F922D2
:0E075C00C3E49FFFE49EFEE49DFDE49CFC22AE
:10076A00EB9FF5F0EA9E42F0E99D42F0EC6480C806
:06077A0064809845F022A6
:0C078000ECF208EDF208EEF208EFF222B5
:10078C00D083D082E493F208740193F2087402933C
:09079C00F208740393F274047373
:1007A500FAE2FB0808E2F925F0F218E2CA3AF22269
:0907B500EBF208EAF208E9F22275
:1007BE00D083D082F8E4937012740193700DA3A3CA
:1007CE0093F8740193F5828883E4737402936860DE
:0607DE00EFA3A3A380DFDE
:102E5900EFB40A07740D122E64740A309811A899F8
:102E6900B8130CC2983098FDA899C298B811F630D9
:072E790099FDC299F59922B1
:00000001FF
